:100000000C9434000C9451000C9451000C94510049
:100010000C9451000C9451000C9451000C9451001C
:100020000C9451000C9451000C9451000C9451000C
:100030000C9451000C9451000C9451000C945100FC
:100040000C9451000C9451000C9451000C945100EC
:100050000C9451000C9451000C9451000C945100DC
:100060000C9451000C94510011241FBECFEFD8E026
:10007000DEBFCDBF11E0A0E0B1E0EEEEFDE002C0DA
:1000800005900D92AA34B107D9F721E0AAE4B1E0B6
:1000900001C01D92AB34B207E1F70E949A030C94A1
:1000A000F5060C9400001092B90088E48093B80023
:1000B00084E08093BC00089584E98093BC00089597
:1000C00094EA9093BC009091BC0097FFFCCF809382
:1000D000BB0084E88093BC008091BC0087FFFCCF0C
:1000E0000895880F0C946000880F81600C94600064
:1000F000982F84EC911101C084E88093BC0080911A
:10010000BC0087FFFCCF8091BB00911103C094E934
:100110009093BC00089581E00C94780080E00C94EA
:1001200078008093BB0084E88093BC008091BC0081
:1001300087FFFCCF0895CF93DF93D62FC42F0E9463
:1001400071008D2F0E9491008C2F0E94910084E9F4
:100150008093BC00DF91CF910895880F81600E9449
:10016000600080E00C947800CF93DF93D62FC82FE7
:10017000CC0F8C2F0E9460008D2F0E9491008C2F3D
:1001800081600E94600080E0DF91CF910C94780044
:1001900094EA9093BC009091B900880F8093BB00C3
:1001A00084E88093BC008091BC0087FFFCCF8091E5
:1001B000B900887F883149F4987F81E0983009F44C
:1001C00080E094E99093BC00089582E0FACF0C940B
:1001D0004C031F93CF93DF93D82FC92F162F64E0C2
:1001E00010FF1AC00E94550365E08D2F9C2F11FF50
:1001F00016C00E94550366E08D2F9C2F12FF12C07F
:100200000E94550367E08D2F9C2F13FF0EC0DF91D6
:10021000CF911F910C9455030E946B03E5CF0E9470
:100220006B03E9CF0E946B03EDCFDF91CF911F915C
:100230000C946B031F93CF93DF93D82FC92F162FE6
:1002400062E00E945503612F62956F708D2F9C2F85
:100250000E94E90062E08D2F9C2F0E946B0362E0F8
:100260008D2F9C2F0E945503612F8D2F9C2F0E9454
:10027000E90062E08D2F9C2F0E946B0387EC90E0D9
:100280000197F1F700C00000DF91CF911F91089511
:100290001F93CF93DF93D82FC92F162F60E00E94B2
:1002A0006B03612F8D2F9C2FDF91CF911F910C94A9
:1002B0001A011F93CF93DF93D82FC92F162F60E019
:1002C0000E945503612F8D2F9C2FDF91CF911F919D
:1002D0000C941A010F931F93CF93DF93182F092FBC
:1002E000EB016991611105C0DF91CF911F910F91D1
:1002F0000895812F902F0E945901F3CF262F342F7C
:10030000327041FD34E140FB662766F9632B2068BB
:10031000620F0C94480161E00E9448018FE39FE165
:100320000197F1F700C00000089562E00E944801C3
:100330008FE39FE10197F1F700C000000895EF926D
:10034000FF920F931F93CF93DF938C017B01642F58
:1003500060640E944801E701C70108967C01699129
:10036000C8010E945901CE15DF05C9F760E8C80130
:10037000DF91CF911F910F91FF90EF900C94480166
:10038000FF920F931F93CF93DF93CDB7DEB7A09764
:100390000FB6F894DEBF0FBECDBF8C0188E0E0E061
:1003A000F1E0DE01599601900D928A95E1F788E01F
:1003B000E0E1F1E0DE01519601900D928A95E1F7BE
:1003C00088E0E8E0F1E0DE01199601900D928A954F
:1003D000E1F788E0E8E1F1E0DE01119601900D928D
:1003E0008A95E1F740E0BE01675E7F4FC8010E9439
:1003F0009F018FE39CE90197F1F700C0000048E0FE
:10040000BE016F5E7F4FC8010E949F018FE39CE990
:100410000197F1F700C0000040E1BE01675F7F4F28
:10042000C8010E949F018FE39CE90197F1F700C08A
:10043000000048E1BE016F5F7F4FC8010E949F012D
:100440008FE39CE90197F1F700C0000060E0C8016C
:100450000E946B0362E0C8010E946B0383E0F82EE8
:1004600062E0C8010E94550363E0C8010E94E900F0
:1004700062E0C8010E946B038FE19EE40197F1F7EF
:1004800000C00000FA9461F762E0C8010E945503C1
:1004900062E0C8010E94E90062E0C8010E946B03AB
:1004A0008FE99FE00197F1F700C0000068E2C80102
:1004B0000E94480168E0C8010E94480161E0C8014B
:1004C0000E9448018FE39FE10197F1F700C000000F
:1004D00066E0C8010E9448016CE0C801A0960FB612
:1004E000F894DEBF0FBECDBFDF91CF911F910F916A
:1004F000FF900C944801FF920F931F93CF93DF93CB
:1005000000D0CDB7DEB78C01F62E0E944C036F2DC4
:10051000CE0101960E94500389819A81F80191834E
:100520008083C8010F900F90DF91CF911F910F91A1
:10053000FF900C94C00163E00C94550363E00C94AD
:100540006B0380E480937C0087E880937A000895B1
:1005500090917C00907F8F70982B90937C0080917D
:100560007A00806480937A0080917A0086FDFCCFC7
:100570002091780030917900A8E8B3E10E94F60359
:10058000DC01CB012AE0B695A795979587952A952A
:10059000D1F70895AF92BF92CF92DF92EF92FF9280
:1005A0000F931F93CF93DF93CDB7DEB7A0970FB60E
:1005B000F894DEBF0FBECDBF8C01D62EC72EB42E51
:1005C000A52E40E060E00E947E01CE0101967C01F4
:1005D00080E2F70111928A95E9F7AF92BF92CF922C
:1005E000DF9280E291E09F938F93FF92EF920E94BF
:1005F0000C04B701C8010E946A010FB6F894DEBF6F
:100600000FBECDBFA0960FB6F894DEBF0FBECDBF14
:10061000DF91CF911F910F91FF90EF90DF90CF90DE
:10062000BF90AF900895DF92EF92FF920F931F93C8
:10063000CF93DF93CDB7DEB7A0970FB6F894DEBFA8
:100640000FBECDBF8C01F62E41E060E00E947E011E
:10065000CE01019620E2FC0111922A95E9F7D82EED
:10066000E92E61E371E0F11002C06DE371E00E94D8
:1006700005046D2D7E2DC8010E946A01A0960FB65B
:10068000F894DEBF0FBECDBFDF91CF911F910F91C8
:10069000FF90EF90DF900895FC0110821182089581
:1006A000FC01618310820C945300CF93DF93EC0123
:1006B00081E090E001C0880F6A95EAF76881682BB5
:1006C000688389810E94710088810E949100DF9176
:1006D000CF910C945C00CF93DF93EC0181E090E02C
:1006E00001C0880F6A95EAF78095988189238883ED
:1006F00089810E94710088810E949100DF91CF91D1
:100700000C945C00FC016083862F0C949100CF93C5
:10071000C62FFC0181810E94AD0090E002C095953A
:100720008795CA95E2F78170CF910895FC01818188
:100730000C94AD0000D0CDB7DEB78FEF84B915B8FB
:100740000E94A10267E28E010F5F1F4FC8010E9445
:100750007B022FEF81EE94E0215080409040E1F742
:1007600000C00000C8010E949B02C8010E948B01CA
:10077000F02EE12E80E00E94A8028C0181E00E9410
:10078000A802AC018017910738F080914A018111CD
:1007900003C081E080934A01C801841B950B803916
:1007A00091402CF080914A01811110924A01B801C8
:1007B0008F2D9E2D0E94CA0260914A018F2D9E2D81
:1007C0000E94130381E090914A01911101C080E0E1
:1007D0008295880F807E85B98FEF99EF20E0815058
:1007E00090402040E1F700C00000C4CFA29FB001BC
:1007F000B39FC001A39F700D811D1124911DB29F55
:10080000700D811D1124911D0895FB01DC010190E3
:100810000D920020E1F70895AEE0B0E0E2E1F4E0EF
:100820000C94CC060D891E8986E08C831A8309837B
:100830008FEF9FE79E838D83AE01475E5F4F6F8989
:10084000788DCE0101960E942F042F813885020FEA
:10085000131FF80110822E96E4E00C94E806ABE03A
:10086000B0E0E5E3F4E00C94C1066C017B018A0181
:10087000FC0117821682838181FFD9C19AE0592E2B
:10088000F6012381F70123FD859123FF81917F01EB
:10089000811509F41FC1853239F423FD959123FF99
:1008A00091917F01953229F4B60190E00E943006C3
:1008B000E7CF30E0912C612C712CF0E27F1640F5EF
:1008C0009B32D9F058F49032D1F09332F1F09E324D
:1008D00099F576FCFFC0689476F806C09D3291F0D9
:1008E0009033C1F4689470F8F70123FD959123FFCC
:1008F00091917F019111E1CF29C0689471F86894BA
:1009000072F8F2CF689473F8EFCF689474F8ECCF74
:1009100077FC1CC080ED890F8A30C8F676FE05C0D2
:10092000959C800D1124982EDFCF659C800D11249D
:10093000682E689475F8D8CF9C3619F4689477F8C7
:10094000D3CF9C3409F44BC0983671F2892F8F7D38
:100950008554833008F445C0933609F466C0933754
:1009600009F469C0933509F475C0943619F09936C5
:1009700009F09FC0F80177FE95C061917191819156
:1009800091918F01272D2F76822E97FF09C0909588
:100990008095709561957F4F8F4F9F4F689487F832
:1009A0002AE030E0AE014F5F5F4F5A010E946006BF
:1009B0008A19A82E86FEC4C0882D8E7FA91408F03F
:1009C000BEC084FE11C182FC05C1F82DFE7E8F2EB3
:1009D000B92C882D8678811509F4BFC000C131E09B
:1009E00083CF3115F9F0085F1F4F8FE38983882487
:1009F0008394912CAE014F5F5F4F5A01E89477F8D2
:100A000073FC03C086149104B0F181149104D1F5F4
:100A1000611409F435CFB60180E290E00E943006FF
:100A20006A94F6CF0C5F1F4FE0CFF8018081898375
:100A30000E5F1F4FDCCFF801A190B1908F01692D9F
:100A400070E076FC02C06FEF7FEFC5010E942506C3
:100A50004C01D4CFF801A190B1908F01692D70E0C5
:100A600076FC02C06FEF7FEFC5010E941A064C01B1
:100A7000689477F8C5CFB60180E290E00E94300616
:100A80006A94C0CFF50177FC859177FE81915F0173
:100A9000B60190E00E94300661106A94F1E08F1A6E
:100AA0009108B3CF61917191072E000C880B990BBF
:100AB00068CF872CE89484F82AE030E0953739F144
:100AC000572D597F852E903799F058F49835A9F015
:100AD0009F36D9F0F601868197812B96EFE00C9432
:100AE000DD069837B9F774FC05C020E130E00FC08F
:100AF000689484F8689482F8F8CF74FE03C0872D58
:100B00008660882E20E132E002C028E030E0F80163
:100B100087FE10C061917191819191918F01FE01C9
:100B200031965F01AF010E9460068A19A82EE894F1
:100B300087F840CF6191719180E090E0EFCF882EEF
:100B4000BA2C84FE46CFFE01EA0DF11D8081803370
:100B500009F043C0282D297E822E83FC0EC080FE22
:100B60004FC09A2CB61418F4960C9B18B62C862DF0
:100B70008B196B1408F480E0B80EB61408F042C06C
:100B80006B1884FE41C0B60180E390E00E943006FD
:100B900082FE09C088E590E081FC02C088E790E011
:100BA000B6010E943006A914D8F1AA94B12C4FEFD7
:100BB000A41AB40ACE0101964C01A80EB91EF50183
:100BC00082915F01B60190E00E9430068A149B0476
:100BD000B1F71ECFB92C882EB6CF82FC02C0B394D9
:100BE000BCCFB394B394B9CFB92C882EF2CEB60152
:100BF00080E290E00E94300673947614C0F3B7CF81
:100C00007B2CFBCF612CBDCF882D8678811559F2C6
:100C100080E281FC8BE287FC8DE2B60190E0C1CFDF
:100C2000B60180E390E00E9430069A94BCCF8FEF2B
:100C30009FEF53CFFC010590615070400110D8F731
:100C4000809590958E0F9F1F0895FC016150704014
:100C500001900110D8F7809590958E0F9F1F0895F1
:100C60000F931F93CF93DF93182F092FEB018B81E5
:100C700081FD09C01FEF0FEF812F902FDF91CF91E2
:100C80001F910F91089582FF14C02E813F818C81A6
:100C90009D81281739073CF4E881F981CF0101963D
:100CA0009983888310838E819F8101969F838E8391
:100CB000E3CFE885F985812F0995892BA1F3DACF58
:100CC000FA01AA27283051F1203181F1E8946F937D
:100CD0006E7F6E5F7F4F8F4F9F4FAF4FB1E03ED023
:100CE000B4E03CD0670F781F891F9A1FA11D680FC1
:100CF000791F8A1F911DA11D6A0F711D811D911DF4
:100D0000A11D20D009F468943F912AE0269F112468
:100D10003019305D3193DEF6CF010895462F4770CC
:100D2000405D4193B3E00FD0C9F7F6CF462F4F7027
:100D3000405D4A3318F0495D31FD4052419302D085
:100D4000A9F7EACFB4E0A69597958795779567952B
:100D5000BA95C9F700976105710508959B01AC012B
:100D60000A2E06945795479537952795BA95C9F752
:100D7000620F731F841F951FA01D08952F923F922D
:100D80004F925F926F927F928F929F92AF92BF929B
:100D9000CF92DF92EF92FF920F931F93CF93DF9347
:100DA000CDB7DEB7CA1BDB0B0FB6F894DEBF0FBEA4
:100DB000CDBF09942A88398848885F846E847D84F1
:100DC0008C849B84AA84B984C884DF80EE80FD80F3
:100DD0000C811B81AA81B981CE0FD11D0FB6F89469
:0E0DE000DEBF0FBECDBFED010895F894FFCF2A
:100DEE0000000E010F110F0200000E111F100E0257
:100DFE000C04060C04040E0001020F1010100F005C
:100E0E00303A256420313A256420202020202020ED
:100E1E00006C69676874206F6E202020006C696713
:0A0E2E006874206F66662020000043
:00000001FF
