:100000000C9434000C9449000C9449000C94490061
:100010000C9449000C9449000C9449000C9449003C
:100020000C9449000C9449000C9449000C9449002C
:100030000C9449000C9449000C9449000C9449001C
:100040000C9449000C9449000C9449000C9449000C
:100050000C9449000C9449000C9449000C944900FC
:100060000C9449000C94490011241FBECFEFD8E036
:10007000DEBFCDBF11E0A0E0B1E0E0EAFDE002C0EC
:1000800005900D92AE33B107D9F70E943B030C9453
:10009000CE060C9400001092B90088E48093B8005A
:1000A00084E08093BC00089584E98093BC000895A7
:1000B00094EA9093BC009091BC0097FFFCCF809392
:1000C000BB0084E88093BC008091BC0087FFFCCF1C
:1000D0000895880F0C945800880F81600C94580084
:1000E000982F84EC911101C084E88093BC0080912A
:1000F000BC0087FFFCCF8091BB00911103C094E945
:100100009093BC00089581E00C94700080E00C9402
:1001100070008093BB0084E88093BC008091BC0099
:1001200087FFFCCF0895CF93DF93D62FC42F0E9473
:1001300069008D2F0E9489008C2F0E94890084E91C
:100140008093BC00DF91CF910895880F81600E9459
:10015000580080E00C947000CF93DF93D62FC82F07
:10016000CC0F8C2F0E9458008D2F0E9489008C2F5D
:1001700081600E94580080E0DF91CF910C94700064
:1001800094EA9093BC009091B900880F8093BB00D3
:1001900084E88093BC008091BC0087FFFCCF8091F5
:1001A000B900887F883149F4987F81E0983009F45C
:1001B00080E094E99093BC00089582E0FACF0C941B
:1001C000CB021F93CF93DF93D82FC92F162F64E054
:1001D00010FF1AC00E94D40265E08D2F9C2F11FFE2
:1001E00016C00E94D40266E08D2F9C2F12FF12C011
:1001F0000E94D40267E08D2F9C2F13FF0EC0DF9169
:10020000CF911F910C94D4020E94EA02E5CF0E9484
:10021000EA02E9CF0E94EA02EDCFDF91CF911F9170
:100220000C94EA021F93CF93DF93D82FC92F162F78
:1002300062E00E94D402612F62956F708D2F9C2F17
:100240000E94E10062E08D2F9C2F0E94EA0262E092
:100250008D2F9C2F0E94D402612F8D2F9C2F0E94E6
:10026000E10062E08D2F9C2F0E94EA0287EC90E073
:100270000197F1F700C00000DF91CF911F91089521
:100280001F93CF93DF93D82FC92F162F60E00E94C2
:10029000EA02612F8D2F9C2FDF91CF911F910C943B
:1002A00012011F93CF93DF93D82FC92F162F60E031
:1002B0000E94D402612F8D2F9C2FDF91CF911F912F
:1002C0000C9412010F931F93CF93DF93182F092FD4
:1002D000EB016991611105C0DF91CF911F910F91E1
:1002E0000895812F902F0E945101F3CFEF92FF923A
:1002F0001F93CF93DF93CDB7DEB7E0970FB6F89497
:10030000DEBF0FBECDBFCE0101967C0180E3F701B9
:1003100011928A95E9F79E01245C3F4F4AAD5BAD8F
:1003200060E370E0C7010E94D803182FB70188ADC1
:1003300099AD0E946201812FE0960FB6F894DEBF5E
:100340000FBECDBFDF91CF911F91FF90EF90089529
:10035000262F342F327041FD34E140FB662766F9C9
:10036000632B2068620F0C94400161E00E94400101
:100370008FE39FE10197F1F700C00000089562E06C
:100380000E9440018FE39FE10197F1F700C0000058
:100390000895EF92FF920F931F93CF93DF938C01F9
:1003A0007B01642F60640E944001E701C701089649
:1003B0007C016991C8010E945101CE15DF05C9F782
:1003C00060E8C801DF91CF911F910F91FF90EF90EE
:1003D0000C944001FF920F931F93CF93DF93CDB7FF
:1003E000DEB7A0970FB6F894DEBF0FBECDBF8C016D
:1003F00088E0E0E0F1E0DE01599601900D928A95E7
:10040000E1F788E0E0E1F1E0DE01519601900D9224
:100410008A95E1F788E0E8E0F1E0DE0119960190C5
:100420000D928A95E1F788E0E8E1F1E0DE011196AE
:1004300001900D928A95E1F740E0BE01675E7F4F23
:10044000C8010E94C9018FE39CE90197F1F700C040
:10045000000048E0BE016F5E7F4FC8010E94C901E5
:100460008FE39CE90197F1F700C0000040E1BE0175
:10047000675F7F4FC8010E94C9018FE39CE9019724
:10048000F1F700C0000048E1BE016F5F7F4FC80177
:100490000E94C9018FE39CE90197F1F700C00000B9
:1004A00060E0C8010E94EA0262E0C8010E94EA021C
:1004B00083E0F82E62E0C8010E94D40263E0C80124
:1004C0000E94E10062E0C8010E94EA028FE19EE41E
:1004D0000197F1F700C00000FA9461F762E0C801EB
:1004E0000E94D40262E0C8010E94E10062E0C801FB
:1004F0000E94EA028FE99FE00197F1F700C0000037
:1005000068E2C8010E94400168E0C8010E94400101
:1005100061E0C8010E9440018FE39FE10197F1F77C
:1005200000C0000066E0C8010E9440016CE0C80104
:10053000A0960FB6F894DEBF0FBECDBFDF91CF916E
:100540001F910F91FF900C944001FF920F931F9306
:10055000CF93DF9300D0CDB7DEB78C01F62E0E948B
:10056000CB026F2DCE0101960E94CF0289819A8124
:10057000F80191838083C8010F900F90DF91CF9194
:100580001F910F91FF900C94EA0163E00C94D40248
:1005900063E00C94EA02FC01108211820895FC01D0
:1005A000618310820C944B00CF93DF93EC0181E0C8
:1005B00090E001C0880F6A95EAF76881682B68832C
:1005C00089810E94690088810E948900DF91CF9112
:1005D0000C945400CF93DF93EC0181E090E001C0D4
:1005E000880F6A95EAF780959881892388838981A5
:1005F0000E94690088810E948900DF91CF910C944C
:100600005400FC016083862F0C948900CF93C62F81
:10061000FC0181810E94A50090E002C0959587951C
:10062000CA95E2F78170CF910895FC0181810C9405
:10063000A50090917C00907F8F70982B90937C0008
:1006400080917A00806480937A0080917A0086FDA0
:10065000FCCF2091780030917900A8E8B3E10E94A6
:10066000C903DC01CB012AE0B695A795979587953C
:100670002A95D1F7089500D0CDB7DEB78FEF84B9B2
:1006800015B880E480937C0087E880937A0067E265
:10069000CE0101960E94A5022FEF81EE94E0215039
:1006A00080409040E1F700C00000CE0101960E941A
:1006B000C502CE0101960E94B501512C412C87E262
:1006C000682E81E0782E93E3C92E91E0D92E23E2A3
:1006D000A22E21E0B22E30E2832E31E0932E80E074
:1006E0000E9419038C0181E00E9419037C0198018A
:1006F000281B390B81E0203931400CF080E091E07B
:10070000E016F10608F490E0592A582228E2421235
:100710003EC040E060E0CE0101960E94A801FF9239
:10072000EF921F930F937F926F92CE0101969F934A
:100730008F930E94760141E060E0CE0101960E9415
:10074000A8010FB6F894DEBF0FBECDBFC401511093
:1007500001C0C5019F938F93DF92CF92CE01019686
:100760009F938F930E9476010F900F900F900F90A0
:100770000F900F90412C852D8295880F807E85B932
:100780008FE19EE40197F1F700C00000A8CF4394E9
:10079000F2CFA29FB001B39FC001A39F700D811D36
:1007A0001124911DB29F700D811D1124911D08957A
:1007B000AEE0B0E0EEEDF3E00C94A5068C01F62F70
:1007C000E72FBA01A90186E08C831A8309838F2F52
:1007D0009E2F813020E8920710F080E090E801978A
:1007E0009E838D83CE0101960E9408044D815E8117
:1007F00057FD0AC02F813885421753070CF49A0120
:10080000020F131FF80110822E96E4E00C94C1062B
:10081000ABE0B0E0EEE0F4E00C949A066C017B01F2
:100820008A01FC0117821682838181FFD9C19AE077
:10083000592EF6012381F70123FD859123FF819134
:100840007F01811509F41FC1853239F423FD95918B
:1008500023FF91917F01953229F4B60190E00E9427
:100860000906E7CF30E0912C612C712CF0E27F1665
:1008700040F59B32D9F058F49032D1F09332F1F038
:100880009E3299F576FCFFC0689476F806C09D32DA
:1008900091F09033C1F4689470F8F70123FD9591BD
:1008A00023FF91917F019111E1CF29C0689471F8E4
:1008B000689472F8F2CF689473F8EFCF689474F884
:1008C000ECCF77FC1CC080ED890F8A30C8F676FE2D
:1008D00005C0959C800D1124982EDFCF659C800D5E
:1008E0001124682E689475F8D8CF9C3619F4689452
:1008F00077F8D3CF9C3409F44BC0983671F2892F26
:100900008F7D8554833008F445C0933609F466C062
:10091000933709F469C0933509F475C0943619F01A
:10092000993609F09FC0F80177FE95C061917191E9
:10093000819191918F01272D2F76822E97FF09C0EB
:1009400090958095709561957F4F8F4F9F4F6894DC
:1009500087F82AE030E0AE014F5F5F4F5A010E94F6
:1009600039068A19A82E86FEC4C0882D8E7FA91448
:1009700008F0BEC084FE11C182FC05C1F82DFE7EC8
:100980008F2EB92C882D8678811509F4BFC000C13F
:1009900031E083CF3115F9F0085F1F4F8FE3898372
:1009A00088248394912CAE014F5F5F4F5A01E894E5
:1009B00077F873FC03C086149104B0F1811491049C
:1009C000D1F5611409F435CFB60180E290E00E94C0
:1009D00009066A94F6CF0C5F1F4FE0CFF8018081C3
:1009E00089830E5F1F4FDCCFF801A190B1908F017A
:1009F000692D70E076FC02C06FEF7FEFC5010E94A9
:100A0000FE054C01D4CFF801A190B1908F01692D62
:100A100070E076FC02C06FEF7FEFC5010E94F30526
:100A20004C01689477F8C5CFB60180E290E00E944F
:100A300009066A94C0CFF50177FC859177FE819114
:100A40005F01B60190E00E94090661106A94F1E02E
:100A50008F1A9108B3CF61917191072E000C880B0A
:100A6000990B68CF872CE89484F82AE030E095371A
:100A700039F1572D597F852E903799F058F49835D4
:100A8000A9F09F36D9F0F601868197812B96EFE089
:100A90000C94B6069837B9F774FC05C020E130E035
:100AA0000FC0689484F8689482F8F8CF74FE03C08D
:100AB000872D8660882E20E132E002C028E030E0F9
:100AC000F80187FE10C061917191819191918F0120
:100AD000FE0131965F01AF010E9439068A19A82EE6
:100AE000E89487F840CF6191719180E090E0EFCF7A
:100AF000882EBA2C84FE46CFFE01EA0DF11D8081BE
:100B0000803309F043C0282D297E822E83FC0EC03D
:100B100080FE4FC09A2CB61418F4960C9B18B62C75
:100B2000862D8B196B1408F480E0B80EB61408F00B
:100B300042C06B1884FE41C0B60180E390E00E9481
:100B4000090682FE09C088E590E081FC02C088E7C2
:100B500090E0B6010E940906A914D8F1AA94B12C1C
:100B60004FEFA41AB40ACE0101964C01A80EB91E8B
:100B7000F50182915F01B60190E00E9409068A1496
:100B80009B04B1F71ECFB92C882EB6CF82FC02C0D1
:100B9000B394BCCFB394B394B9CFB92C882EF2CE12
:100BA000B60180E290E00E94090673947614C0F3C7
:100BB000B7CF7B2CFBCF612CBDCF882D86788115DC
:100BC00059F280E281FC8BE287FC8DE2B60190E075
:100BD000C1CFB60180E390E00E9409069A94BCCF91
:100BE0008FEF9FEF53CFFC010590615070400110D3
:100BF000D8F7809590958E0F9F1F0895FC01615046
:100C0000704001900110D8F7809590958E0F9F1F2E
:100C100008950F931F93CF93DF93182F092FEB01A4
:100C20008B8181FD09C01FEF0FEF812F902FDF9186
:100C3000CF911F910F91089582FF14C02E813F81A3
:100C40008C819D81281739073CF4E881F981CF0117
:100C500001969983888310838E819F8101969F835B
:100C60008E83E3CFE885F985812F0995892BA1F340
:100C7000DACFFA01AA27283051F1203181F1E89426
:100C80006F936E7F6E5F7F4F8F4F9F4FAF4FB1E07F
:100C90003ED0B4E03CD0670F781F891F9A1FA11D7A
:100CA000680F791F8A1F911DA11D6A0F711D811D7B
:100CB000911DA11D20D009F468943F912AE0269F40
:100CC00011243019305D3193DEF6CF010895462F9F
:100CD0004770405D4193B3E00FD0C9F7F6CF462F80
:100CE0004F70405D4A3318F0495D31FD40524193E9
:100CF00002D0A9F7EACFB4E0A695979587957795A6
:100D00006795BA95C9F700976105710508959B012C
:100D1000AC010A2E06945795479537952795BA95B5
:100D2000C9F7620F731F841F951FA01D08952F928E
:100D30003F924F925F926F927F928F929F92AF926B
:100D4000BF92CF92DF92EF92FF920F931F93CF93B8
:100D5000DF93CDB7DEB7CA1BDB0B0FB6F894DEBF4F
:100D60000FBECDBF09942A88398848885F846E8475
:100D70007D848C849B84AA84B984C884DF80EE80BF
:100D8000FD800C811B81AA81B981CE0FD11D0FB6C8
:100D9000F894DEBF0FBECDBFED010895F894FFCFEC
:100DA00000000E010F110F0200000E111F100E02A5
:100DB0000C04060C04040E0001020F1010100F00AA
:100DC0006F6E006F666600303A25346420313A2534
:0E0DD0003464006C696768742025732020006D
:00000001FF
