:100000000C9434000C9449000C9449000C94490061
:100010000C9449000C9449000C9449000C9449003C
:100020000C9449000C9449000C9449000C9449002C
:100030000C9449000C9449000C9449000C9449001C
:100040000C9449000C9449000C9449000C9449000C
:100050000C9449000C9449000C9449000C944900FC
:100060000C9449000C94490011241FBECFEFD8E036
:10007000DEBFCDBF11E0A0E0B1E0E6E7FDE002C0E9
:1000800005900D92A234B107D9F70E9469030C9430
:10009000B9060C9400001092B90088E48093B8006F
:1000A00084E08093BC00089584E98093BC000895A7
:1000B00094EA9093BC009091BC0097FFFCCF809392
:1000C000BB0084E88093BC008091BC0087FFFCCF1C
:1000D0000895880F0C945800880F81600C94580084
:1000E000982F84EC911101C084E88093BC0080912A
:1000F000BC0087FFFCCF8091BB00911103C094E945
:100100009093BC00089581E00C94700080E00C9402
:1001100070008093BB0084E88093BC008091BC0099
:1001200087FFFCCF0895CF93DF93D62FC42F0E9473
:1001300069008D2F0E9489008C2F0E94890084E91C
:100140008093BC00DF91CF910895880F81600E9459
:10015000580080E00C947000CF93DF93D62FC82F07
:10016000CC0F8C2F0E9458008D2F0E9489008C2F5D
:1001700081600E94580080E0DF91CF910C94700064
:1001800094EA9093BC009091B900880F8093BB00D3
:1001900084E88093BC008091BC0087FFFCCF8091F5
:1001A000B900887F883149F4987F81E0983009F45C
:1001B00080E094E99093BC00089582E0FACF0C941B
:1001C000F9021F93CF93DF93D82FC92F162F64E026
:1001D00010FF1AC00E94020365E08D2F9C2F11FFB3
:1001E00016C00E94020366E08D2F9C2F12FF12C0E2
:1001F0000E94020367E08D2F9C2F13FF0EC0DF913A
:10020000CF911F910C9402030E941803E5CF0E9426
:100210001803E9CF0E941803EDCFDF91CF911F9112
:100220000C9418031F93CF93DF93D82FC92F162F49
:1002300062E00E940203612F62956F708D2F9C2FE8
:100240000E94E10062E08D2F9C2F0E94180362E063
:100250008D2F9C2F0E940203612F8D2F9C2F0E94B7
:10026000E10062E08D2F9C2F0E94180387EC90E044
:100270000197F1F700C00000DF91CF911F91089521
:100280001F93CF93DF93D82FC92F162F60E00E94C2
:100290001803612F8D2F9C2FDF91CF911F910C940C
:1002A00012011F93CF93DF93D82FC92F162F60E031
:1002B0000E940203612F8D2F9C2FDF91CF911F9100
:1002C0000C9412010F931F93CF93DF93182F092FD4
:1002D000EB016991611105C0DF91CF911F910F91E1
:1002E0000895812F902F0E945101F3CF262F342F94
:1002F000327041FD34E140FB662766F9632B2068CC
:10030000620F0C94400161E00E9440018FE39FE185
:100310000197F1F700C00000089562E00E944001DB
:100320008FE39FE10197F1F700C000000895EF927D
:10033000FF920F931F93CF93DF938C017B01642F68
:1003400060640E944001E701C70108967C01699141
:10035000C8010E945101CE15DF05C9F760E8C80148
:10036000DF91CF911F910F91FF90EF900C9440017E
:10037000FF920F931F93CF93DF93CDB7DEB7A09774
:100380000FB6F894DEBF0FBECDBF8C0188E0E0E071
:10039000F1E0DE01599601900D928A95E1F788E02F
:1003A000E0E1F1E0DE01519601900D928A95E1F7CE
:1003B00088E0E8E0F1E0DE01199601900D928A955F
:1003C000E1F788E0E8E1F1E0DE01119601900D929D
:1003D0008A95E1F740E0BE01675E7F4FC8010E9449
:1003E00097018FE39CE90197F1F700C0000048E016
:1003F000BE016F5E7F4FC8010E9497018FE39CE9A9
:100400000197F1F700C0000040E1BE01675F7F4F38
:10041000C8010E9497018FE39CE90197F1F700C0A2
:10042000000048E1BE016F5F7F4FC8010E94970145
:100430008FE39CE90197F1F700C0000060E0C8017C
:100440000E94180362E0C8010E94180383E0F82E9E
:1004500062E0C8010E94020363E0C8010E94E1005B
:1004600062E0C8010E9418038FE19EE40197F1F752
:1004700000C00000FA9461F762E0C8010E94020324
:1004800062E0C8010E94E10062E0C8010E94180316
:100490008FE99FE00197F1F700C0000068E2C80112
:1004A0000E94400168E0C8010E94400161E0C8016B
:1004B0000E9440018FE39FE10197F1F700C0000027
:1004C00066E0C8010E9440016CE0C801A0960FB62A
:1004D000F894DEBF0FBECDBFDF91CF911F910F917A
:1004E000FF900C944001FF920F931F93CF93DF93E3
:1004F00000D0CDB7DEB78C01F62E0E94F9026F2D29
:10050000CE0101960E94FD0289819A81F8019183B2
:100510008083C8010F900F90DF91CF911F910F91B1
:10052000FF900C94B80163E00C94020363E00C9418
:100530001803AF92BF92CF92DF92EF92FF920F9388
:100540001F93CF93DF93CDB7DEB7A0970FB6F89484
:10055000DEBF0FBECDBF8C01D62EC72EB42EA52E6A
:1005600040E060E00E947601CE0101967C0180E2CD
:10057000F70111928A95E9F7AF92BF92CF92DF927D
:1005800080E291E09F938F93FF92EF920E94D003BD
:10059000B701C8010E9462010FB6F894DEBF0FBE1A
:1005A000CDBFA0960FB6F894DEBF0FBECDBFDF91D2
:1005B000CF911F910F91FF90EF90DF90CF90BF9060
:1005C000AF9008951F93CF93DF93D82FC92F162F85
:1005D00041E060E00E9476016CE271E0111102C01E
:1005E00067E371E08D2F9C2FDF91CF911F910C94C9
:1005F0006201FC01108211820895FC016183108266
:100600000C944B00CF93DF93EC0181E090E001C0AC
:10061000880F6A95EAF76881682B688389810E9450
:10062000690088810E948900DF91CF910C94540069
:10063000CF93DF93EC0181E090E001C0880F6A95D1
:10064000EAF7809598818923888389810E946900CF
:1006500088810E948900DF91CF910C945400FC01A5
:100660006083862F0C948900CF93C62FFC01818173
:100670000E94A50090E002C095958795CA95E2F783
:100680008170CF910895FC0181810C94A500909117
:100690007C00907F8F70982B90937C0080917A00E3
:1006A000806480937A0080917A0086FDFCCF20914F
:1006B000780030917900A8E8B3E10E94C103DC0121
:1006C000CB012AE0B695A795979587952A95D1F7FE
:1006D000089500D0CDB7DEB78FEF84B915B880E4A8
:1006E00080937C0087E880937A0067E2CE010196D0
:1006F0007C010E9473029FEF21EE84E09150204024
:100700008040E1F700C00000C7010E949302C701CA
:100710000E94830110E0C12C0E2DDF2C80E00E948E
:1007200047037C0181E00E944703AC019701281B2D
:10073000390B81E0203931400CF080E091E04E151A
:100740005F0508F490E0192B182328E2C21217C0A5
:10075000B701802F9D2D0E949902612F802F9D2D22
:100760000E94E202C12C812F8295880F807E85B97C
:100770008FE19EE40197F1F700C00000CFCFC39452
:10078000F2CFA29FB001B39FC001A39F700D811D46
:100790001124911DB29F700D811D1124911D08958A
:1007A000AEE0B0E0E6EDF3E00C9490060D891E8912
:1007B00086E08C831A8309838FEF9FE79E838D8366
:1007C000AE01475E5F4F6F89788DCE0101960E9422
:1007D000F3032F813885020F131FF80110822E9624
:1007E000E4E00C94AC06ABE0B0E0E9EFF3E00C948D
:1007F00085066C017B018A01FC01178216828381C8
:1008000081FFD9C19AE0592EF6012381F70123FD1A
:10081000859123FF81917F01811509F41FC18532E4
:1008200039F423FD959123FF91917F01953229F4AD
:10083000B60190E00E94F405E7CF30E0912C612CE6
:10084000712CF0E27F1640F59B32D9F058F49032CB
:10085000D1F09332F1F09E3299F576FCFFC06894A6
:1008600076F806C09D3291F09033C1F4689470F828
:10087000F70123FD959123FF91917F019111E1CF24
:1008800029C0689471F8689472F8F2CF689473F88C
:10089000EFCF689474F8ECCF77FC1CC080ED890F23
:1008A0008A30C8F676FE05C0959C800D1124982EDE
:1008B000DFCF659C800D1124682E689475F8D8CF21
:1008C0009C3619F4689477F8D3CF9C3409F44BC064
:1008D000983671F2892F8F7D8554833008F445C096
:1008E000933609F466C0933709F469C0933509F467
:1008F00075C0943619F0993609F09FC0F80177FE5B
:1009000095C061917191819191918F01272D2F76E1
:10091000822E97FF09C090958095709561957F4FC5
:100920008F4F9F4F689487F82AE030E0AE014F5F09
:100930005F4F5A010E9424068A19A82E86FEC4C061
:10094000882D8E7FA91408F0BEC084FE11C182FCE0
:1009500005C1F82DFE7E8F2EB92C882D8678811545
:1009600009F4BFC000C131E083CF3115F9F0085F51
:100970001F4F8FE3898388248394912CAE014F5FAE
:100980005F4F5A01E89477F873FC03C08614910412
:10099000B0F181149104D1F5611409F435CFB60199
:1009A00080E290E00E94F4056A94F6CF0C5F1F4F3E
:1009B000E0CFF801808189830E5F1F4FDCCFF80103
:1009C000A190B1908F01692D70E076FC02C06FEFAD
:1009D0007FEFC5010E94E9054C01D4CFF801A19039
:1009E000B1908F01692D70E076FC02C06FEF7FEF50
:1009F000C5010E94DE054C01689477F8C5CFB601A9
:100A000080E290E00E94F4056A94C0CFF50177FC83
:100A1000859177FE81915F01B60190E00E94F40517
:100A200061106A94F1E08F1A9108B3CF61917191CE
:100A3000072E000C880B990B68CF872CE89484F85C
:100A40002AE030E0953739F1572D597F852E9037C0
:100A500099F058F49835A9F09F36D9F0F6018681BF
:100A600097812B96EFE00C94A1069837B9F774FCA8
:100A700005C020E130E00FC0689484F8689482F8E3
:100A8000F8CF74FE03C0872D8660882E20E132E007
:100A900002C028E030E0F80187FE10C0619171913A
:100AA000819191918F01FE0131965F01AF010E940A
:100AB00024068A19A82EE89487F840CF6191719195
:100AC00080E090E0EFCF882EBA2C84FE46CFFE0166
:100AD000EA0DF11D8081803309F043C0282D297E65
:100AE000822E83FC0EC080FE4FC09A2CB61418F4E0
:100AF000960C9B18B62C862D8B196B1408F480E08D
:100B0000B80EB61408F042C06B1884FE41C0B6019E
:100B100080E390E00E94F40582FE09C088E590E041
:100B200081FC02C088E790E0B6010E94F405A91498
:100B3000D8F1AA94B12C4FEFA41AB40ACE010196B1
:100B40004C01A80EB91EF50182915F01B60190E03B
:100B50000E94F4058A149B04B1F71ECFB92C882E8D
:100B6000B6CF82FC02C0B394BCCFB394B394B9CFD8
:100B7000B92C882EF2CEB60180E290E00E94F405F6
:100B800073947614C0F3B7CF7B2CFBCF612CBDCF11
:100B9000882D8678811559F280E281FC8BE287FCF2
:100BA0008DE2B60190E0C1CFB60180E390E00E94F3
:100BB000F4059A94BCCF8FEF9FEF53CFFC010590C3
:100BC000615070400110D8F7809590958E0F9F1F4F
:100BD0000895FC016150704001900110D8F7809594
:100BE00090958E0F9F1F08950F931F93CF93DF93C0
:100BF000182F092FEB018B8181FD09C01FEF0FEF2B
:100C0000812F902FDF91CF911F910F91089582FF37
:100C100014C02E813F818C819D81281739073CF4B7
:100C2000E881F981CF0101969983888310838E81B1
:100C30009F8101969F838E83E3CFE885F985812F7D
:100C40000995892BA1F3DACFFA01AA27283051F1AF
:100C5000203181F1E8946F936E7F6E5F7F4F8F4FED
:100C60009F4FAF4FB1E03ED0B4E03CD0670F781F4C
:100C7000891F9A1FA11D680F791F8A1F911DA11D31
:100C80006A0F711D811D911DA11D20D009F468946A
:100C90003F912AE0269F11243019305D3193DEF612
:100CA000CF010895462F4770405D4193B3E00FD0C8
:100CB000C9F7F6CF462F4F70405D4A3318F0495DB3
:100CC00031FD4052419302D0A9F7EACFB4E0A69596
:100CD0009795879577956795BA95C9F700976105B8
:100CE000710508959B01AC010A2E0694579547950E
:100CF00037952795BA95C9F7620F731F841F951F03
:100D0000A01D08952F923F924F925F926F927F9213
:100D10008F929F92AF92BF92CF92DF92EF92FF920B
:100D20000F931F93CF93DF93CDB7DEB7CA1BDB0BB7
:100D30000FB6F894DEBF0FBECDBF09942A8839885C
:100D400048885F846E847D848C849B84AA84B98463
:100D5000C884DF80EE80FD800C811B81AA81B9816F
:100D6000CE0FD11D0FB6F894DEBF0FBECDBFED0183
:060D70000895F894FFCF86
:100D760000000E010F110F0200000E111F100E02CF
:100D86000C04060C04040E0001020F1010100F00D4
:100D9600303A25346420313A253464006C6967683A
:100DA60074206F6E2020006C69676874206F666619
:020DB60020001B
:00000001FF
