:100000000C9434000C9449000C9449000C94490061
:100010000C9449000C9449000C9449000C9449003C
:100020000C9449000C9449000C9449000C9449002C
:100030000C9449000C9449000C9449000C9449001C
:100040000C9449000C9449000C9449000C9449000C
:100050000C9449000C9449000C9449000C944900FC
:100060000C9449000C94490011241FBECFEFD8E036
:10007000DEBFCDBF11E0A0E0B1E0E6E1F2E002C0FA
:1000800005900D92A431B107D9F70E9463000C943A
:1000900009010C940000FC01CB012AE030E0B90119
:1000A0000E94F5008083CB01B9010E94F500818395
:1000B000CB01B9010E94F5008283CB01B9010E94F6
:1000C000F5008383089500D000D000D0CDB7DEB70F
:1000D00014B88FEF85B996E0E0E0F1E0DE0111960B
:1000E00001900D929A95E1F78AB91BB887B918B8B3
:1000F00081E08D838FEFF12C00E010E0C12CD12C3A
:10010000B3B0EB2CE094E8222E81822F90E0FE0128
:100110003196E20FF11DE081F0E0EA5FFE4F2081B1
:10012000FC01E05FFE4F808118B82BB988B98E8141
:100130009D81891788F58F5F8E83E1FE06C081E07F
:100140000115110509F480E0F82AE2FE09C0F1105A
:1001500007C00F5F1F4FB801CE0101960E944B00F0
:10016000E3FE09C0F11007C0065F1F4FB801CE01C2
:1001700001960E944B00E0FE11C019821A821B8278
:100180001C82F12C00E010E08FE39FE10197F1F772
:1001900000C000008B2DB4CF80E0CECFF114A1F3CE
:1001A00024EFC21621E0D206E0F001501109B80197
:1001B000CE0101960E944B00C12CD12C01151105D6
:1001C00019F71BB85F9A8FEF93EC29E081509040AC
:1001D0002040E1F700C000005F98C12CD12CF12C29
:1001E000D3CF8FEFC81AD80ACFCFAA1BBB1B51E1C0
:1001F00007C0AA1FBB1FA617B70710F0A61BB70B97
:10020000881F991F5A95A9F780959095BC01CD013B
:060210000895F894FFCFF1
:100216000000000000003F065B4F666D7D077F6FA4
:0402260008040201C5
:00000001FF
