:100000000C9434000C947C000C94A3000C945100CC
:100010000C9451000C9451000C9451000C9451001C
:100020000C9451000C9451000C9451000C94550008
:100030000C9451000C9451000C9451000C945100FC
:100040000C9451000C9451000C9451000C945100EC
:100050000C9451000C9451000C9451000C945100DC
:100060000C9451000C94510011241FBECFEFD8E026
:10007000DEBFCDBF11E0A0E0B1E0E8E5F3E002C0F3
:1000800005900D92A431B107D9F721E0A4E1B1E0C8
:1000900001C01D92AD31B207E1F70E94FE000C9441
:1000A000AA010C940000089508951F920F920FB6B4
:1000B0000F9211242F933F934F935F936F937F93EE
:1000C0008F939F93AF93BF93EF93FF93E0910401BE
:1000D000F09105010995FF91EF91BF91AF919F912B
:1000E0008F917F916F915F914F913F912F910F90E1
:1000F0000FBE0F901F9018951F920F920FB60F9280
:1001000011242F933F934F935F936F937F938F931C
:100110009F93AF93BF93EF93FF93E0910201F09110
:1001200003010995FF91EF91BF91AF919F918F913D
:100130007F916F915F914F913F912F910F900FBEE3
:100140000F901F9018951F920F920FB60F921124C7
:100150002F933F934F935F936F937F938F939F93CF
:10016000AF93BF93EF93FF93E0910001F0910101F2
:100170000995FF91EF91BF91AF919F918F917F91E1
:100180006F915F914F913F912F910F900FBE0F9004
:100190001F90189580911401811579F080911501B7
:1001A000909116010197909316018093150180910B
:1001B0001501909116010E94E60080911501909121
:1001C0001601892B11F41092140108952AE030E0F1
:1001D000B9010E949601E9E1F1E08083CB01B90108
:1001E0000E9496018183CB01B9010E94960182830E
:1001F000CB01B9010E9496018383089514B88FEF53
:1002000085B98AB987B980E090E00E94E60083E072
:1002100080931801F8948AEC90E090930501809304
:10022000040183E294EF90938900809388001092F8
:10023000800088E08093810082E080936F0080914D
:10024000810084608093810078948FEF11E0D3B1B6
:10025000CD2FC095C823C1FF0CC08091140181111E
:1002600008C08091150190911601892B11F010930F
:100270001401C2FF13C08091140181110FC080913D
:100280001501909116010196909316018093150126
:1002900080911501909116010E94E600C3FF13C0E2
:1002A0008091140181110FC0809115019091160168
:1002B0000A969093160180931501809115019091F3
:1002C00016010E94E600C0FF0CC0109214011092AB
:1002D00016011092150180911501909116010E944E
:1002E000E6008091170190E0FC01E75EFE4FE0819F
:1002F000F0E0EA5FFE4F2081805F9E4FFC0180812D
:1003000018B82BB988B980911701909118018917F5
:1003100058F48F5F809317018FE19EE40197F1F706
:1003200000C000008D2F93CF80E0F4CFAA1BBB1B31
:1003300051E107C0AA1FBB1FA617B70710F0A61BE5
:10034000B70B881F991F5A95A9F780959095BC0106
:08035000CD010895F894FFCFE0
:100358005400540053003F065B4F666D7D077F6F66
:040368000804020182
:00000001FF
