:100000000C943A000C944F000C944F000C944F0049
:100010000C944F000C944F000C944F000C944F0024
:100020000C944F000C944F000C944F000C944F0014
:100030000C944F000C944F000C944F000C944F0004
:100040000C944F000C944F000C944F000C944F00F4
:100050000C944F000C944F000C944F000C944F00E4
:100060000C944F000C944F006364696E6F7073754D
:1000700078585B0011241FBECFEFD8E0DEBFCDBFA4
:1000800011E0A0E0B1E0E2EDFEE002C005900D92CB
:10009000A43DB107D9F70E946B000C9467070C943C
:1000A00000009091C00095FFFCCF8093C60008959A
:1000B0008DE00E9451008AE00C945100CF93DF93B1
:1000C000EC018991811104C0DF91CF910C9458000B
:1000D0000E945100F6CFCDB7DEB7C450D2400FB664
:1000E000F894DEBF0FBECDBF8FEF84B915B8109264
:1000F000C50083E38093C40088E18093C10086E05B
:100100008093C2006E012DEFC21AD20AF60111824D
:1001100010823E01FFEF6F1AFDEF7F0AF30111829B
:1001200010827E01F1E0EF0EFF1E412C5524539406
:100130008E010F5F1F4FF701C20111920197E9F77E
:10014000F801C20111920197E9F7A12CB12C80911D
:10015000C00087FD11C0A114B104C9F785B190E2B8
:10016000892785B9FFEF21EE84E0F15020408040DF
:10017000E1F700C00000DFCF3090C60047018A0CD5
:100180009B1C9AE0391619F0EDE03E122FC00E9438
:100190005800F4011082AB2809F3DF92CF9280E07F
:1001A00091E09F938F93FF92EF920E9496010F90A0
:1001B0000F900F900F900F900F90019749F5F60157
:1001C00081818F9380818F938CE091E09F938F93B7
:1001D0001F930F930E947301C8010E945E000F904D
:1001E0000F900F900F900F900F90B8CFFEEFAF16BB
:1001F000B10448F4832D0E9451002FEFA21AB20AD5
:10020000F4013082A4CF0E945800F4011082C5CFBF
:100210007F926F928EE191E09F938F93FF92EF9286
:100220000E9496010F900F900F900F900F900F90DB
:10023000019709F052C0F30120813181F6018081DC
:10024000918182179307A8F49F938F933F932F93E5
:100250008CE291E09F938F931F930F930E94730101
:100260000FB6F894DEBF0FBECDBFC8010E945E007E
:1002700075CF821B930BF3019183808382319105AB
:1002800088F49F938F9385E591E09F938F931F93BD
:100290000F930E9473010F900F900F900F900F908B
:1002A0000F90E3CF9C01225131092730310528F40A
:1002B0009F938F938CE691E0E8CF9C0129513109FF
:1002C0002832310528F49F938F9382E991E0DDCFA6
:1002D0009F938F9385EA91E0D8CFFF92EF9281ECC4
:1002E00091E09F9374CFAEE0B0E0E9E7F1E00C94C9
:1002F0003E070D891E8986E08C831A8309838FEF60
:100300009FE79E838D83AE01475E5F4F6F89788D37
:10031000CE0101960E94AF012F813885020F131F75
:10032000F80110822E96E4E00C945A07AEE0B0E09B
:10033000ECE9F1E00C94400785E08C838B899C8983
:100340009A838983AE01495E5F4F6D897E89CE01B4
:1003500001960E941E052E96E2E00C945C07ABE02D
:10036000B0E0E5EBF1E00C9433076C017B018A010E
:10037000FC0117821682838181FFD9C19AE0592E30
:10038000F6012381F70123FD859123FF81917F01F0
:10039000811509F41FC1853239F423FD959123FF9E
:1003A00091917F01953229F4B60190E00E94870671
:1003B000E7CF30E0912C612C712CF0E27F1640F5F4
:1003C0009B32D9F058F49032D1F09332F1F09E3252
:1003D00099F576FCFFC0689476F806C09D3291F0DE
:1003E0009033C1F4689470F8F70123FD959123FFD1
:1003F00091917F019111E1CF29C0689471F86894BF
:1004000072F8F2CF689473F8EFCF689474F8ECCF79
:1004100077FC1CC080ED890F8A30C8F676FE05C0D7
:10042000959C800D1124982EDFCF659C800D1124A2
:10043000682E689475F8D8CF9C3619F4689477F8CC
:10044000D3CF9C3409F44BC0983671F2892F8F7D3D
:100450008554833008F445C0933609F466C0933759
:1004600009F469C0933509F475C0943619F09936CA
:1004700009F09FC0F80177FE95C06191719181915B
:1004800091918F01272D2F76822E97FF09C090958D
:100490008095709561957F4F8F4F9F4F689487F837
:1004A0002AE030E0AE014F5F5F4F5A010E94CF0655
:1004B0008A19A82E86FEC4C0882D8E7FA91408F044
:1004C000BEC084FE11C182FC05C1F82DFE7E8F2EB8
:1004D000B92C882D8678811509F4BFC000C131E0A0
:1004E00083CF3115F9F0085F1F4F8FE3898388248C
:1004F0008394912CAE014F5F5F4F5A01E89477F8D7
:1005000073FC03C086149104B0F181149104D1F5F9
:10051000611409F435CFB60180E290E00E948706AD
:100520006A94F6CF0C5F1F4FE0CFF801808189837A
:100530000E5F1F4FDCCFF801A190B1908F01692DA4
:1005400070E076FC02C06FEF7FEFC5010E943D06B0
:100550004C01D4CFF801A190B1908F01692D70E0CA
:1005600076FC02C06FEF7FEFC5010E9432064C019E
:10057000689477F8C5CFB60180E290E00E948706C4
:100580006A94C0CFF50177FC859177FE81915F0178
:10059000B60190E00E94870661106A94F1E08F1A1C
:1005A0009108B3CF61917191072E000C880B990BC4
:1005B00068CF872CE89484F82AE030E0953739F149
:1005C000572D597F852E903799F058F49835A9F01A
:1005D0009F36D9F0F601868197812B96EFE00C9437
:1005E0004F079837B9F774FC05C020E130E00FC021
:1005F000689484F8689482F8F8CF74FE03C0872D5D
:100600008660882E20E132E002C028E030E0F80168
:1006100087FE10C061917191819191918F01FE01CE
:1006200031965F01AF010E94CF068A19A82EE89487
:1006300087F840CF6191719180E090E0EFCF882EF4
:10064000BA2C84FE46CFFE01EA0DF11D8081803375
:1006500009F043C0282D297E822E83FC0EC080FE27
:100660004FC09A2CB61418F4960C9B18B62C862DF5
:100670008B196B1408F480E0B80EB61408F042C071
:100680006B1884FE41C0B60180E390E00E948706AB
:1006900082FE09C088E590E081FC02C088E790E016
:1006A000B6010E948706A914D8F1AA94B12C4FEF85
:1006B000A41AB40ACE0101964C01A80EB91EF50188
:1006C00082915F01B60190E00E9487068A149B0424
:1006D000B1F71ECFB92C882EB6CF82FC02C0B394DE
:1006E000BCCFB394B394B9CFB92C882EF2CEB60157
:1006F00080E290E00E94870673947614C0F3B7CF2F
:100700007B2CFBCF612CBDCF882D8678811559F2CB
:1007100080E281FC8BE287FC8DE2B60190E0C1CFE4
:10072000B60180E390E00E9487069A94BCCF8FEFD9
:100730009FEF53CFFC01CA01DB0120FD08C023FD60
:1007400005C022FF02C0B383A283918380830895F2
:10075000582F392FCB01A52FB32F33E044FD14C000
:1007600034E046FD11C0AC01BD01DA01FB01AA0F66
:10077000BB1FEE1FFF1F1094D1F74A0F5B1F6E1FA8
:100780007F1FDB01CA0131E0880F991FAA1FBB1F21
:100790003A95D1F7BC01CD01620F711D811D911DEC
:1007A00008950F931F93CF93DF938C01C8010E948C
:1007B0004806EC0197FD08C00E941E06892BB1F780
:1007C000B801CE010E94B706CE01DF91CF911F91F3
:1007D0000F910895A0E0B0E0E0EFF3E00C9437074C
:1007E000B82E092FC62F942EA52E122F0E94480630
:1007F000FC019927EB3219F08D9781F41068CA95A6
:1008000031F480E0CDB7DEB7EBE00C9453078B2DCD
:10081000902F0E944806FC0197FDF3CFD12FDD7F7A
:10082000812F8073811132C0E03381F5FF24FA9467
:10083000FC0EF11439F08B2D902F0E944806FC011C
:1008400097FF16C0C12CD12C7601D7FF08C0F094B9
:10085000E094D094C094C11CD11CE11CF11C2D2F3C
:10086000B701A601892D9A2D0E949A0381E0CACF73
:100870008F7DD12F883521F5D264C25019F38B2D8D
:10088000902F0E944806FC0197FDDCCFC12CD12C93
:10089000760120ED2E0F2830D8F0D4FD09C02A3083
:1008A000B8F0D6FF05C02F7D8FEE820F863078F02E
:1008B0006B2D702FCF010E94B706D1FFA2CFC5CFFD
:1008C00016FF03C0D260CF2DE1CFD261FCCF2750FD
:1008D0004D2FC701B6010E94A8036B017C01D260B5
:1008E000CA9509F4B2CF8B2D902F0E944806FC01C7
:1008F00097FFCFCFAACFA0E2B0E0E1E8F4E00C94FC
:1009000034076C01962E7A01CE0101965C0180E2DB
:10091000F50111928A95E9F7F6018380890140E09B
:1009200050E0B0E020E0A0E061E070E0F80183FC7E
:10093000959183FE9191892F8F01911107C000E05D
:1009400010E0C801A096EEE00C9450079E3519F413
:100950004115510539F1A4171506F4F49D3551F1EF
:100960009D32D1F4211511F1E82FE695E695E69533
:10097000EA0DFB2DF11D282F27703B0102C0660CEC
:10098000771C2A95E2F79081962990838B1781F046
:100990008B1730F48F5FE8CF2111E6CFB92FE4CF6A
:1009A0008150E2CFA1E04F5F5F4FC0CF21E0FBCF8E
:1009B00020E0F9CF211519F08E8180628E83A11578
:1009C00061F0F5019E012F5D3F4F8081DF0131967F
:1009D00080958C93E217F307C1F788248394C601AE
:1009E0000E94480697FD16C0E82FE695E695E69525
:1009F000EA0DFB2DF11D208130E0AC014770552739
:100A000002C0359527954A95E2F720FD06C0B6014C
:100A10000E94B706811459F092CFE114F10419F045
:100A2000F70181937F019A94812C9110D8CFE11422
:100A3000F10409F486CFF701108283CFA0E0B0E083
:100A4000E4E2F5E00C9434075C01EB01742E652EB2
:100A5000FC0117821682C12CF501F380FE01F3FC24
:100A60000591F3FE0191EF010115F1F0802F90E067
:100A70000E941E06892B21F0C5010E94D103ECCFF4
:100A8000053241F4FE01F3FC1591F3FE1191EF01E3
:100A9000153269F4C5010E94480697FD8CC00817FD
:100AA000D9F2B5010E94B7068C2D90E088C000E015
:100AB0001A3231F4F3FC1591F3FE1191EF0101E0CC
:100AC000D12C20ED210F2A3048F101FF37C0D1147D
:100AD00059F31836B1F11C3609F43DC0111521F354
:100AE000612F70E088E690E00E942706892BE1F2F2
:100AF000E12CF12C00FD06C0E72DF62DE190F190E0
:100B00007E2E6F2E1E3679F5F5014681578160E005
:100B100070E0202FC7010E949A039ECF02606D2DC6
:100B200070E080E090E040E20E94A803D62EFE0133
:100B3000F3FC1591F3FE1191EF01C3CFDD24DA949C
:100B4000C8CFFE01F3FC1591F3FE1191EF011836A9
:100B500009F0C4CF08600460FE01F3FC1591F3FEB8
:100B60001191EF01BBCF1336A9F401FD02C0DD24C2
:100B7000D394C5010E94480697FD1DC0E114F104FD
:100B800019F0F70181937F01DA9499F700FD64CFA2
:100B9000C39462CF1B35C1F49E01A7016D2DC50121
:100BA0000E947B04EC01892B89F7F5018381807316
:100BB000811509F479CF8FEF9FEFC11075CFCDB7B5
:100BC000DEB7EEE00C945007C5010E94D10397FDFB
:100BD000F2CF1F3689F130F4143641F0193639F06E
:100BE000006405C0133799F01537D1F70062202F44
:100BF000A7016D2DC5010E94EA038115D5CFE1142F
:100C0000F10419F0F70181927F01DA9471F0C501C6
:100C10000E9448064C0197FD08C00E941E06892BC1
:100C200071F3B501C4010E94B706E114F10409F49F
:100C3000ADCFF7011082AACF0061D9CF91110C94EA
:100C40002D07803219F089508550C8F70895FC01AE
:100C50000590061621F00020D9F7C00108953197BC
:100C6000CF010895FC010590615070400110D8F744
:100C7000809590958E0F9F1F0895FC0161507040E4
:100C800001900110D8F7809590958E0F9F1F0895C1
:100C9000CF93DF93EC018B8180FF1BC086FF0CC0DC
:100CA0008F7B8B838E819F8101969F838E838A8128
:100CB00090E0DF91CF91089582FF19C0E881F9811A
:100CC0009081292F092E000C330B911105C08062F1
:100CD0008B838FEF9FEFEDCF3196F983E8838E8181
:100CE0009F8101969F838E83C9019927E2CFEA8570
:100CF000FB85CE0109959C0197FFF1CF8B812F3F9A
:100D00003F4F19F490E1892BE3CF90E2FCCF0F9392
:100D10001F93CF93DF93182F092FEB018B8181FD58
:100D200009C01FEF0FEF812F902FDF91CF911F91FF
:100D30000F91089582FF14C02E813F818C819D8187
:100D4000281739073CF4E881F981CF01019699838E
:100D5000888310838E819F8101969F838E83E3CF4A
:100D6000E885F985812F0995892BA1F3DACFFB015D
:100D7000238120FF11C026FD0FC08F3F980771F01F
:100D800082832F7D2064238326813781215031097E
:100D900037832683992708958FEF9FEF0895FA01EF
:100DA000AA27283051F1203181F1E8946F936E7FAA
:100DB0006E5F7F4F8F4F9F4FAF4FB1E03ED0B4E09B
:100DC0003CD0670F781F891F9A1FA11D680F791FDC
:100DD0008A1F911DA11D6A0F711D811D911DA11DED
:100DE00020D009F468943F912AE0269F11243019FD
:100DF000305D3193DEF6CF010895462F4770405D98
:100E00004193B3E00FD0C9F7F6CF462F4F70405D46
:100E10004A3318F0495D31FD4052419302D0A9F7A1
:100E2000EACFB4E0A6959795879577956795BA959B
:100E3000C9F700976105710508959B01AC010A2E61
:100E400006945795479537952795BA95C9F7620F38
:100E5000731F841F951FA01D089599278827089543
:100E60002F923F924F925F926F927F928F929F92BA
:100E7000AF92BF92CF92DF92EF92FF920F931F93A8
:100E8000CF93DF93CDB7DEB7CA1BDB0B0FB6F89459
:100E9000DEBF0FBECDBF09942A88398848885F8499
:100EA0006E847D848C849B84AA84B984C884DF800A
:100EB000EE80FD800C811B81AA81B981CE0FD11DEE
:100EC0000FB6F894DEBF0FBECDBFED010895F894C4
:020ED000FFCF52
:100ED2007365742D79656172202564003E3E207928
:100EE2006561722073657420746F202575006368D4
:100EF20065636B2D79656172202575003E3E206227
:100F0200616420796561722C20676F7420257520D9
:100F1200627574207374617274696E672066726F91
:100F22006D202575004D61737A202575206C6174E2
:100F32002C206DC5826F647A696B75004D61737A7E
:100F4200202575206C61742C206DC5826F64792018
:100F5200646F726F73C5827920637A7920636FC57B
:100F62009B004D61737A202575206C61742C20736F
:100F720074617279004D61737A202575206C6174F9
:100F82002C206361C5826B69656D2073746172790F
:100F9200003E3E20676F742062616420636D643A94
:040FA2002025730093
:00000001FF
