:100000000C9434000C9449000C9449000C94490061
:100010000C9449000C9449000C9449000C9449003C
:100020000C9449000C9449000C9449000C9449002C
:100030000C9449000C9449000C9449000C9449001C
:100040000C9449000C9449000C9449000C9449000C
:100050000C9449000C9449000C9449000C944900FC
:100060000C9449000C94490011241FBECFEFD8E036
:10007000DEBFCDBF11E0A0E0B1E0E8E0F2E002C0F9
:1000800005900D92A431B107D9F70E9463000C943A
:1000900002010C940000FC01CB012AE030E0B90120
:1000A0000E94EE008083CB01B9010E94EE008183A3
:1000B000CB01B9010E94EE008283CB01B9010E94FD
:1000C000EE008383089500D000D000D0CDB7DEB716
:1000D00014B88FEF85B996E0E0E0F1E0DE0111960B
:1000E00001900D929A95E1F78AB91BB887B918B8B3
:1000F00085E0898381E08A838D838FEFF12C0FE087
:1001000010E0C12CD12C95E0A92E99249394B3B082
:10011000EB2CE094E8222E81822F90E0FE013196B4
:10012000E20FF11DE081F0E0EA5FFE4F2081FC016B
:10013000E05FFE4F808118B82BB988B98E819D8110
:10014000891778F58F5F8E83E1FA882780F9F82A7E
:10015000E2FE09C0F11007C00F5F1F4FB801CE01CA
:1001600001960E944B00E3FE09C0F11007C0065F34
:100170001F4FB801CE0101960E944B00E0FE13C054
:10018000F11439F0A9829A821B821C82F12C0FE0B3
:1001900010E08FE39FE10197F1F700C000008B2D85
:1001A000B6CF80E0D0CFF114A1F384EFC81681E080
:1001B000D80680F001501109B801CE0101960E94C5
:1001C0004B00FF24F3940115110509F4F12CC12C07
:1001D000D12CDFCF9FEFC91AD90ADBCFAA1BBB1BDB
:1001E00051E107C0AA1FBB1FA617B70710F0A61B37
:1001F000B70B881F991F5A95A9F780959095BC0158
:08020000CD010895F894FFCF31
:100208000000000000003F065B4F666D7D077F6FB2
:0402180008040201D3
:00000001FF
