:100000000C9434000C9449000C9449000C94490061
:100010000C9449000C9449000C9449000C9449003C
:100020000C9449000C9449000C9449000C9449002C
:100030000C9449000C9449000C9449000C9449001C
:100040000C9449000C9449000C9449000C9449000C
:100050000C9449000C9449000C9449000C944900FC
:100060000C9449000C94490011241FBECFEFD8E036
:10007000DEBFCDBF11E0A0E0B1E0E4E0F1E002C0FE
:1000800005900D92A431B107D9F70E944B000C9452
:1000900080000C94000000D000D000D0CDB7DEB7B7
:1000A00086E0E0E0F1E0DE01119601900D928A9584
:1000B000E1F78FEF8AB91BB887B918B889E089834F
:1000C00086E08A8380E0E82FF0E0DE011196A80F39
:1000D000B11DAC91B0E0AA5FBE4F2C91E05FFE4F26
:1000E000908118B82BB998B9833041F08F5FEFE356
:1000F000FFE13197F1F700C00000E5CF80E0F7CFD6
:04010000F894FFCFA1
:100104000000000000003F065B4F666D7D077F6FB7
:0401140008040201D8
:00000001FF
