:100000000C9434000C947D000C94A4000C944900D2
:100010000C9449000C9449000C9449000C9449003C
:100020000C9449000C9449000C9449000C9456001F
:100030000C9449000C9449000C9449000C9449001C
:100040000C9449000C9449000C9449000C9449000C
:100050000C9449000C9449000C9449000C944900FC
:100060000C9449000C94490011241FBECFEFD8E036
:10007000DEBFCDBF11E0A0E0B1E0E8E2F2E002C0F7
:1000800005900D92A630B107D9F70E94CB000C94D1
:1000900012010C940000089585B190E2892785B97A
:1000A00008952D9808952D9A089508951F920F92FE
:1000B0000FB60F9211242F933F934F935F936F933B
:1000C0007F938F939F93AF93BF93EF93FF93E091B1
:1000D0000401F09105010995FF91EF91BF91AF9156
:1000E0009F918F917F916F915F914F913F912F9150
:1000F0000F900FBE0F901F9018951F920F920FB682
:100100000F9211242F933F934F935F936F937F939D
:100110008F939F93AF93BF93EF93FF93E09102016F
:10012000F09103010995FF91EF91BF91AF919F91DC
:100130008F917F916F915F914F913F912F910F9090
:100140000FBE0F901F9018951F920F920FB60F922F
:1001500011242F933F934F935F936F937F938F93CC
:100160009F93AF93BF93EF93FF93E0910001F091C2
:1001700001010995FF91EF91BF91AF919F918F91EF
:100180007F916F915F914F913F912F910F900FBE93
:100190000F901F901895259A52985A9A53985B9AE7
:1001A000F8948CE490E0909305018093040181E140
:1001B0009AE790938900809388001092800088E0ED
:1001C0008093810082E080936F0080918100856040
:1001D000809381007894F89481E590E090930301F6
:1001E0008093020180916900826080936900809110
:1001F00069008E7F80936900E89A7894F89483E58B
:1002000090E09093010180930001809169008860E3
:1002100080936900809169008B7F80936900E99ADF
:080220007894FFCFF894FFCFA2
:06022800550055004B00DB
:00000001FF
