:100000000C9434000C9446000C9446000C9446006A
:100010000C9446000C9446000C9446000C94460048
:100020000C9446000C9446000C9446000C944D0031
:100030000C9446000C9446000C9446000C94460028
:100040000C9446000C9446000C9446000C94460018
:100050000C9446000C9446000C9446000C94460008
:100060000C9446000C94460011241FBECFEFD8E03C
:10007000DEBFCDBF21E0A0E0B1E001C01D92A23003
:10008000B207E1F70E9476000C949F000C940000E8
:1000900085B190E2892785B908951F920F920FB616
:1000A0000F9211242F933F934F935F936F937F93FE
:1000B0008F939F93AF93BF93EF93FF93E0910001D2
:1000C000F0910101309709F00995FF91EF91BF91EF
:1000D000AF919F918F917F916F915F914F913F91E0
:1000E0002F910F900FBE0F901F90189514B88FEF9F
:1000F00085B9259AF89488E490E090930101809363
:10010000000181E19AE79093890080938800109222
:10011000800088E08093810082E080936F0080916E
:10012000810085608093810078942FEF89E698E1C3
:10013000215080409040E1F700C00000F6CFF894D5
:02014000FFCFEF
:00000001FF
