:100000000C9434000C947A000C94A3000C944600D9
:100010000C9446000C9446000C9446000C94460048
:100020000C9446000C9446000C9446000C9451002D
:100030000C9446000C9446000C9446000C94460028
:100040000C9446000C9446000C9446000C94460018
:100050000C9446000C9446000C9446000C94460008
:100060000C9446000C94460011241FBECFEFD8E03C
:10007000DEBFCDBF21E0A0E0B1E001C01D92A630FF
:10008000B207E1F70E94CC000C9413010C9400001D
:1000900085B190E2892785B908952D9808952D9A04
:1000A00008951F920F920FB60F9211242F933F9332
:1000B0004F935F936F937F938F939F93AF93BF9370
:1000C000EF93FF93E0910401F0910501309709F05F
:1000D0000995FF91EF91BF91AF919F918F917F9182
:1000E0006F915F914F913F912F910F900FBE0F90A5
:1000F0001F9018951F920F920FB60F9211242F93F5
:100100003F934F935F936F937F938F939F93AF939F
:10011000BF93EF93FF93E0910201F09103013097B9
:1001200009F00995FF91EF91BF91AF919F918F9148
:100130007F916F915F914F913F912F910F900FBEE3
:100140000F901F9018951F920F920FB60F921124C7
:100150002F933F934F935F936F937F938F939F93CF
:10016000AF93BF93EF93FF93E0910001F0910101F2
:10017000309709F00995FF91EF91BF91AF919F9151
:100180008F917F916F915F914F913F912F910F9040
:100190000FBE0F901F901895259A52985A9A53980F
:1001A0005B9AF89488E490E09093050180930401B1
:1001B00081E19AE7909389008093880010928000F3
:1001C00088E08093810082E080936F0080918100BD
:1001D0008560809381007894F8948DE490E090930A
:1001E000030180930201809169008260809369001D
:1001F000809169008E7F80936900E89A7894F894E2
:100200008FE490E090930101809300018091690058
:10021000886080936900809169008B7F809369007A
:0A022000E99A7894FFCFF894FFCF1D
:00000001FF
