:100000000C9434000C943E000C943E000C943E0082
:100010000C943E000C943E000C943E000C943E0068
:100020000C943E000C943E000C943E000C943E0058
:100030000C943E000C943E000C943E000C943E0048
:100040000C943E000C943E000C943E000C943E0038
:100050000C943E000C943E000C943E000C943E0028
:100060000C943E000C943E0011241FBECFEFD8E04C
:10007000DEBFCDBF0E9440000C946B000C940000CA
:100080008FEF8AB91BB814B885B921E090E03FEF33
:1000900043B1842F8095832380FD969581FF02C014
:1000A000990F916083FD13C082FB882780F9282B6C
:1000B00021110FC080E08BB93FEF59EF80E0315044
:1000C00050408040E1F700C00000342FE1CF20E035
:0A00D000F1CF892FF0CFF894FFCF95
:00000001FF
